:020000040000FA
:10000000000100206D020000810200008302000058
:10001000850200008502000085020000000000004B
:100020000000000000000000000000008502000049
:10003000850200000000000085020000850200002B
:100040008502000085020000850200008502000094
:100050008502000085020000850200008502000084
:100060008502000085020000850200008502000074
:100070008502000085020000850200008502000064
:100080008502000085020000850200008502000054
:100090008502000085020000850200008502000044
:1000A0008502000085020000850200008502000034
:1000B0008502000085020000850200008502000024
:1000C0008502000085020000850200008502000014
:1000D0008502000085020000850200008502000004
:1000E0008502000000000000000000008502000002
:1000F00085020000850200008502000085020000E4
:1001000085020000850200008502000085020000D3
:1001100000000000000000008502000085020000D1
:1001200085020000850200008502000085020000B3
:1001300085020000850200008502000085020000A3
:1001400000000000000000000000000000000000AF
:100150008502000085020000850200008502000083
:10016000000000000000000000000000000000008F
:10017000000000000000000000000000000000007F
:10018000000000000000000000000000000000006F
:10019000000000000000000000000000000000005F
:1001A000000000000000000000000000000000004F
:1001B0008502000085020000850200008502000023
:1001C0008502000085020000850200008502000013
:1001D0008502000085020000850200008502000003
:1001E000850200008502000085020000000000007A
:1001F000000000008502000085020000850200006A
:1002000085020000850200000000000000000000E0
:1002100085020000850200008502000085020000C2
:1002200085020000850200008502000085020000B2
:1002300085020000850200008502000085020000A2
:100240008502000085020000850200008502000092
:100250008502000085020000850200008502000082
:100260008502000085020000850200004EF68850DD
:10027000CEF20000016841F47001016000F004B8A2
:10028000FEE7FEE7FEE70000DFF80CD000F006F81E
:1002900000480047B904000000010020064C074D4B
:1002A00006E0E06840F0010394E807009847103446
:1002B000AC42F6D3FFF7ECFF90060000A00600006A
:1002C000D0F8003412F0010F14BF0B438B43C0F879
:1002D000003412F0020FD0F8202414BF114322EA98
:1002E0000101C0F8201470472DE9F00301264FF0FA
:1002F000000C0325C2F3411706FA0CF40C4211D08E
:10030000D0F8C48F4FEA4C0405FA04F928EA09082A
:10031000C0F8C48FD0F8C48F07FA04F448EA040484
:10032000C0F8C44F0CF1010C0CF0FF0CBCF1080F2D
:10033000E2D3D0F800C512F0010F14BF4CEA010C53
:100340002CEA010CC0F800C5D0F804C512F0020F69
:1003500014BF4CEA010C2CEA010CC0F804C5D0F81B
:1003600008C512F0040F14BF4CEA010C2CEA010C72
:10037000C0F808C5D0F818C512F0080F14BF4CEA31
:10038000010C2CEA010CC0F818C512F0100FD0F8BF
:100390003C2514BF0A438A43C0F83C25D0F80C25FD
:1003A00013F0010F14BF0A438A43C0F80C25D0F89C
:1003B000102513F0020F14BF0A438A43C0F810251A
:1003C000D0F8142513F0040F14BF0A438A43C0F871
:1003D0001425D0F81C2513F0080F14BF0A438A43D4
:1003E000C0F81C25D0F8442513F4007F14BF0A433D
:1003F0008A43C0F84425D0F8402513F4407F14BF49
:100400000A438A43C0F84025D0F82825002B0CBFAA
:10041000114322EA0101C0F82815BDE8F003704736
:1004200030B50C46054608230122FFF75DFF214643
:100430002846BDE830400122FFF742BF40F82120A6
:1004400070470000C0F307230749C0B2194401F008
:100450007043C1F3130143EA411141EA800040F0C7
:10046000007001220260704700E60F40C0F30722CF
:100470000849C0B2114401F07042C1F3130142EACD
:10048000411141EA800040F000700068002818BF68
:100490000120704700EA0F4002E008C8121F08C19F
:1004A000002AFAD170477047002001E001C1121FF5
:1004B000002AFBD170470000724C08B52046FFF7B8
:1004C000C1FF2046FFF7D2FF0028FAD06E4E02216E
:1004D0003046FFF7A5FF04213046FFF7A1FF0821B2
:1004E0003046FFF79DFF694C00250F220221304660
:1004F000FFF7A4FF00950098401C0090A042FAD39B
:10050000002202213046FFF799FF00950098401C19
:100510000090A042FAD30F2204213046FFF78EFF4D
:1005200000950098401C0090A042FAD300220421BC
:100530003046FFF783FF00950098401C0090A042D2
:10054000FAD30F2208213046FFF778FF0095009874
:10055000401C0090A042FAD3002208213046FFF749
:100560006DFF00950098401C0090A042FAD30F2226
:1005700004213046FFF762FF0F2202213046FFF7C9
:100580005DFF00950098401C0090A042FAD3002225
:1005900004213046FFF752FF002202213046FFF7C8
:1005A0004DFF00950098401C0090A042FAD30F2206
:1005B00008213046FFF742FF0F2202213046FFF7A5
:1005C0003DFF00950098401C0090A042FAD3002205
:1005D00008213046FFF732FF002202213046FFF7A4
:1005E0002DFF00950098401C0090A042FAD30F22E6
:1005F00008213046FFF722FF0F2204213046FFF783
:100600001DFF00950098401C0090A042FAD30022E4
:1006100008213046FFF712FF002204213046FFF781
:100620000DFF00950098401C0090A042FAD30F22C5
:1006300008213046FFF702FF0F2204213046FFF762
:10064000FDFE0F2202213046FFF7F8FE00950098CC
:10065000401C0090A042FAD3002208213046FFF748
:10066000EDFE002204213046FFF7E8FE00220221C1
:100670003046FFF7E3FE00950098401C0090A04232
:10068000FAD332E7050800F00050024040420F0064
:10069000A00600000000002000010000A8040000E7
:040000050000026D88
:00000001FF
